{
  "contractName": "Charity",
  "abi": [
    {
      "constant": true,
      "inputs": [
        {
          "name": "",
          "type": "uint256"
        }
      ],
      "name": "organisations",
      "outputs": [
        {
          "name": "name",
          "type": "string"
        },
        {
          "name": "bankAccount",
          "type": "string"
        },
        {
          "name": "bankName",
          "type": "string"
        },
        {
          "name": "id",
          "type": "uint256"
        },
        {
          "name": "orgAddress",
          "type": "address"
        },
        {
          "name": "balance",
          "type": "uint256"
        }
      ],
      "payable": false,
      "stateMutability": "view",
      "type": "function"
    },
    {
      "constant": true,
      "inputs": [],
      "name": "charityCount",
      "outputs": [
        {
          "name": "",
          "type": "uint256"
        }
      ],
      "payable": false,
      "stateMutability": "view",
      "type": "function"
    },
    {
      "constant": true,
      "inputs": [
        {
          "name": "",
          "type": "uint256"
        }
      ],
      "name": "transactions",
      "outputs": [
        {
          "name": "from",
          "type": "address"
        },
        {
          "name": "to",
          "type": "address"
        },
        {
          "name": "amount",
          "type": "uint256"
        },
        {
          "name": "timestamp",
          "type": "uint256"
        },
        {
          "name": "id",
          "type": "uint256"
        }
      ],
      "payable": false,
      "stateMutability": "view",
      "type": "function"
    },
    {
      "constant": true,
      "inputs": [],
      "name": "transactionCount",
      "outputs": [
        {
          "name": "",
          "type": "uint256"
        }
      ],
      "payable": false,
      "stateMutability": "view",
      "type": "function"
    },
    {
      "constant": true,
      "inputs": [],
      "name": "orgCount",
      "outputs": [
        {
          "name": "",
          "type": "uint256"
        }
      ],
      "payable": false,
      "stateMutability": "view",
      "type": "function"
    },
    {
      "constant": true,
      "inputs": [
        {
          "name": "",
          "type": "uint256"
        }
      ],
      "name": "charities",
      "outputs": [
        {
          "name": "name",
          "type": "string"
        },
        {
          "name": "description",
          "type": "string"
        },
        {
          "name": "bankAccount",
          "type": "string"
        },
        {
          "name": "bankName",
          "type": "string"
        },
        {
          "name": "id",
          "type": "uint256"
        },
        {
          "name": "charityAddress",
          "type": "address"
        },
        {
          "name": "balance",
          "type": "uint256"
        }
      ],
      "payable": false,
      "stateMutability": "view",
      "type": "function"
    },
    {
      "anonymous": false,
      "inputs": [
        {
          "indexed": false,
          "name": "id",
          "type": "uint256"
        },
        {
          "indexed": false,
          "name": "name",
          "type": "string"
        },
        {
          "indexed": false,
          "name": "charityAddress",
          "type": "address"
        },
        {
          "indexed": false,
          "name": "timestamp",
          "type": "uint256"
        }
      ],
      "name": "CharityCreated",
      "type": "event"
    },
    {
      "anonymous": false,
      "inputs": [
        {
          "indexed": false,
          "name": "id",
          "type": "uint256"
        },
        {
          "indexed": false,
          "name": "name",
          "type": "string"
        },
        {
          "indexed": false,
          "name": "orgAddress",
          "type": "address"
        },
        {
          "indexed": false,
          "name": "timestamp",
          "type": "uint256"
        }
      ],
      "name": "OrganisationCreated",
      "type": "event"
    },
    {
      "anonymous": false,
      "inputs": [
        {
          "indexed": false,
          "name": "from",
          "type": "address"
        },
        {
          "indexed": false,
          "name": "to",
          "type": "address"
        },
        {
          "indexed": false,
          "name": "amount",
          "type": "uint256"
        },
        {
          "indexed": false,
          "name": "timestamp",
          "type": "uint256"
        }
      ],
      "name": "DonationReceived",
      "type": "event"
    },
    {
      "constant": false,
      "inputs": [
        {
          "name": "_name",
          "type": "string"
        },
        {
          "name": "_description",
          "type": "string"
        },
        {
          "name": "_bankAccount",
          "type": "string"
        },
        {
          "name": "_bankName",
          "type": "string"
        }
      ],
      "name": "createCharity",
      "outputs": [
        {
          "name": "",
          "type": "uint256"
        }
      ],
      "payable": false,
      "stateMutability": "nonpayable",
      "type": "function"
    },
    {
      "constant": false,
      "inputs": [
        {
          "name": "_name",
          "type": "string"
        },
        {
          "name": "_bankAccount",
          "type": "string"
        },
        {
          "name": "_bankName",
          "type": "string"
        }
      ],
      "name": "createOrganisation",
      "outputs": [
        {
          "name": "",
          "type": "uint256"
        }
      ],
      "payable": false,
      "stateMutability": "nonpayable",
      "type": "function"
    },
    {
      "constant": false,
      "inputs": [
        {
          "name": "_charityId",
          "type": "uint256"
        }
      ],
      "name": "donateToCharity",
      "outputs": [],
      "payable": true,
      "stateMutability": "payable",
      "type": "function"
    },
    {
      "constant": true,
      "inputs": [
        {
          "name": "_charityId",
          "type": "uint256"
        }
      ],
      "name": "getCharityBalance",
      "outputs": [
        {
          "name": "",
          "type": "uint256"
        }
      ],
      "payable": false,
      "stateMutability": "view",
      "type": "function"
    },
    {
      "constant": true,
      "inputs": [
        {
          "name": "_orgId",
          "type": "uint256"
        }
      ],
      "name": "getOrganisationBalance",
      "outputs": [
        {
          "name": "",
          "type": "uint256"
        }
      ],
      "payable": false,
      "stateMutability": "view",
      "type": "function"
    }
  ],
  "bytecode": "0x6080604052600080556000600155600060025534801561001e57600080fd5b50611b1d8061002e6000396000f3fe6080604052600436106100af576000357c0100000000000000000000000000000000000000000000000000000000900463ffffffff168063246f8c44146100b45780636667ddca1461028157806391329493146105225780639ace38c21461054d578063b397eb0a14610610578063b77bf6001461081a578063beeaee9114610845578063c984ae0414610873578063d8106690146108c2578063db912e53146108ed578063fb709d2e1461093c575b600080fd5b3480156100c057600080fd5b506100ed600480360360208110156100d757600080fd5b8101908080359060200190929190505050610b75565b604051808060200180602001806020018781526020018673ffffffffffffffffffffffffffffffffffffffff1673ffffffffffffffffffffffffffffffffffffffff16815260200185815260200184810384528a818151815260200191508051906020019080838360005b83811015610173578082015181840152602081019050610158565b50505050905090810190601f1680156101a05780820380516001836020036101000a031916815260200191505b50848103835289818151815260200191508051906020019080838360005b838110156101d95780820151818401526020810190506101be565b50505050905090810190601f1680156102065780820380516001836020036101000a031916815260200191505b50848103825288818151815260200191508051906020019080838360005b8381101561023f578082015181840152602081019050610224565b50505050905090810190601f16801561026c5780820380516001836020036101000a031916815260200191505b50995050505050505050505060405180910390f35b34801561028d57600080fd5b5061050c600480360360808110156102a457600080fd5b81019080803590602001906401000000008111156102c157600080fd5b8201836020820111156102d357600080fd5b803590602001918460018302840111640100000000831117156102f557600080fd5b91908080601f016020809104026020016040519081016040528093929190818152602001838380828437600081840152601f19601f8201169050808301925050505050505091929192908035906020019064010000000081111561035857600080fd5b82018360208201111561036a57600080fd5b8035906020019184600183028401116401000000008311171561038c57600080fd5b91908080601f016020809104026020016040519081016040528093929190818152602001838380828437600081840152601f19601f820116905080830192505050505050509192919290803590602001906401000000008111156103ef57600080fd5b82018360208201111561040157600080fd5b8035906020019184600183028401116401000000008311171561042357600080fd5b91908080601f016020809104026020016040519081016040528093929190818152602001838380828437600081840152601f19601f8201169050808301925050505050505091929192908035906020019064010000000081111561048657600080fd5b82018360208201111561049857600080fd5b803590602001918460018302840111640100000000831117156104ba57600080fd5b91908080601f016020809104026020016040519081016040528093929190818152602001838380828437600081840152601f19601f820116905080830192505050505050509192919290505050610d99565b6040518082815260200191505060405180910390f35b34801561052e57600080fd5b50610537610fce565b6040518082815260200191505060405180910390f35b34801561055957600080fd5b506105866004803603602081101561057057600080fd5b8101908080359060200190929190505050610fd4565b604051808673ffffffffffffffffffffffffffffffffffffffff1673ffffffffffffffffffffffffffffffffffffffff1681526020018573ffffffffffffffffffffffffffffffffffffffff1673ffffffffffffffffffffffffffffffffffffffff1681526020018481526020018381526020018281526020019550505050505060405180910390f35b34801561061c57600080fd5b506108046004803603606081101561063357600080fd5b810190808035906020019064010000000081111561065057600080fd5b82018360208201111561066257600080fd5b8035906020019184600183028401116401000000008311171561068457600080fd5b91908080601f016020809104026020016040519081016040528093929190818152602001838380828437600081840152601f19601f820116905080830192505050505050509192919290803590602001906401000000008111156106e757600080fd5b8201836020820111156106f957600080fd5b8035906020019184600183028401116401000000008311171561071b57600080fd5b91908080601f016020809104026020016040519081016040528093929190818152602001838380828437600081840152601f19601f8201169050808301925050505050505091929192908035906020019064010000000081111561077e57600080fd5b82018360208201111561079057600080fd5b803590602001918460018302840111640100000000831117156107b257600080fd5b91908080601f016020809104026020016040519081016040528093929190818152602001838380828437600081840152601f19601f82011690508083019250505050505050919291929050505061104a565b6040518082815260200191505060405180910390f35b34801561082657600080fd5b5061082f61125d565b6040518082815260200191505060405180910390f35b6108716004803603602081101561085b57600080fd5b8101908080359060200190929190505050611263565b005b34801561087f57600080fd5b506108ac6004803603602081101561089657600080fd5b810190808035906020019092919050505061163a565b6040518082815260200191505060405180910390f35b3480156108ce57600080fd5b506108d76116df565b6040518082815260200191505060405180910390f35b3480156108f957600080fd5b506109266004803603602081101561091057600080fd5b81019080803590602001909291905050506116e5565b6040518082815260200191505060405180910390f35b34801561094857600080fd5b506109756004803603602081101561095f57600080fd5b810190808035906020019092919050505061178a565b60405180806020018060200180602001806020018881526020018773ffffffffffffffffffffffffffffffffffffffff1673ffffffffffffffffffffffffffffffffffffffff16815260200186815260200185810385528c818151815260200191508051906020019080838360005b838110156109ff5780820151818401526020810190506109e4565b50505050905090810190601f168015610a2c5780820380516001836020036101000a031916815260200191505b5085810384528b818151815260200191508051906020019080838360005b83811015610a65578082015181840152602081019050610a4a565b50505050905090810190601f168015610a925780820380516001836020036101000a031916815260200191505b5085810383528a818151815260200191508051906020019080838360005b83811015610acb578082015181840152602081019050610ab0565b50505050905090810190601f168015610af85780820380516001836020036101000a031916815260200191505b50858103825289818151815260200191508051906020019080838360005b83811015610b31578082015181840152602081019050610b16565b50505050905090810190601f168015610b5e5780820380516001836020036101000a031916815260200191505b509b50505050505050505050505060405180910390f35b6004602052806000526040600020600091509050806000018054600181600116156101000203166002900480601f016020809104026020016040519081016040528092919081815260200182805460018160011615610100020316600290048015610c215780601f10610bf657610100808354040283529160200191610c21565b820191906000526020600020905b815481529060010190602001808311610c0457829003601f168201915b505050505090806001018054600181600116156101000203166002900480601f016020809104026020016040519081016040528092919081815260200182805460018160011615610100020316600290048015610cbf5780601f10610c9457610100808354040283529160200191610cbf565b820191906000526020600020905b815481529060010190602001808311610ca257829003601f168201915b505050505090806002018054600181600116156101000203166002900480601f016020809104026020016040519081016040528092919081815260200182805460018160011615610100020316600290048015610d5d5780601f10610d3257610100808354040283529160200191610d5d565b820191906000526020600020905b815481529060010190602001808311610d4057829003601f168201915b5050505050908060030154908060040160009054906101000a900473ffffffffffffffffffffffffffffffffffffffff16908060050154905086565b6000806000815480929190600101919050555060e06040519081016040528086815260200185815260200184815260200183815260200160005481526020013373ffffffffffffffffffffffffffffffffffffffff168152602001600081525060036000805481526020019081526020016000206000820151816000019080519060200190610e29929190611a4c565b506020820151816001019080519060200190610e46929190611a4c565b506040820151816002019080519060200190610e63929190611a4c565b506060820151816003019080519060200190610e80929190611a4c565b506080820151816004015560a08201518160050160006101000a81548173ffffffffffffffffffffffffffffffffffffffff021916908373ffffffffffffffffffffffffffffffffffffffff16021790555060c082015181600601559050507fe6780a115881482643051bb9b4d0282ebf784518e24bb072460f3a5b0542f71260005486334260405180858152602001806020018473ffffffffffffffffffffffffffffffffffffffff1673ffffffffffffffffffffffffffffffffffffffff168152602001838152602001828103825285818151815260200191508051906020019080838360005b83811015610f84578082015181840152602081019050610f69565b50505050905090810190601f168015610fb15780820380516001836020036101000a031916815260200191505b509550505050505060405180910390a16000549050949350505050565b60005481565b60056020528060005260406000206000915090508060000160009054906101000a900473ffffffffffffffffffffffffffffffffffffffff16908060010160009054906101000a900473ffffffffffffffffffffffffffffffffffffffff16908060020154908060030154908060040154905085565b600060016000815480929190600101919050555060c06040519081016040528085815260200184815260200183815260200160015481526020013373ffffffffffffffffffffffffffffffffffffffff168152602001600081525060046000600154815260200190815260200160002060008201518160000190805190602001906110d6929190611a4c565b5060208201518160010190805190602001906110f3929190611a4c565b506040820151816002019080519060200190611110929190611a4c565b506060820151816003015560808201518160040160006101000a81548173ffffffffffffffffffffffffffffffffffffffff021916908373ffffffffffffffffffffffffffffffffffffffff16021790555060a082015181600501559050507f4192f7f51905ed0deb7b79f6dfaf6bec6e84ebd119ecf2e452a00653ecf9ca1460015485334260405180858152602001806020018473ffffffffffffffffffffffffffffffffffffffff1673ffffffffffffffffffffffffffffffffffffffff168152602001838152602001828103825285818151815260200191508051906020019080838360005b838110156112145780820151818401526020810190506111f9565b50505050905090810190601f1680156112415780820380516001836020036101000a031916815260200191505b509550505050505060405180910390a160015490509392505050565b60025481565b60008111801561127557506000548111155b15156112e9576040517f08c379a00000000000000000000000000000000000000000000000000000000081526004018080602001828103825260128152602001807f496e76616c69642063686172697479204944000000000000000000000000000081525060200191505060405180910390fd5b600034111515611387576040517f08c379a00000000000000000000000000000000000000000000000000000000081526004018080602001828103825260268152602001807f446f6e6174696f6e20616d6f756e74206d75737420626520677265617465722081526020017f7468616e2030000000000000000000000000000000000000000000000000000081525060400191505060405180910390fd5b60006003600083815260200190815260200160002090503481600601600082825401925050819055508060050160009054906101000a900473ffffffffffffffffffffffffffffffffffffffff1673ffffffffffffffffffffffffffffffffffffffff166108fc349081150290604051600060405180830381858888f1935050505015801561141a573d6000803e3d6000fd5b5060026000815480929190600101919050555060a0604051908101604052803373ffffffffffffffffffffffffffffffffffffffff1681526020018260050160009054906101000a900473ffffffffffffffffffffffffffffffffffffffff1673ffffffffffffffffffffffffffffffffffffffff16815260200134815260200142815260200160025481525060056000600254815260200190815260200160002060008201518160000160006101000a81548173ffffffffffffffffffffffffffffffffffffffff021916908373ffffffffffffffffffffffffffffffffffffffff16021790555060208201518160010160006101000a81548173ffffffffffffffffffffffffffffffffffffffff021916908373ffffffffffffffffffffffffffffffffffffffff1602179055506040820151816002015560608201518160030155608082015181600401559050507fce9409ee3dc10e35de83dda0f830e4a13935452188fe71a956b850ecb839425f338260050160009054906101000a900473ffffffffffffffffffffffffffffffffffffffff163442604051808573ffffffffffffffffffffffffffffffffffffffff1673ffffffffffffffffffffffffffffffffffffffff1681526020018473ffffffffffffffffffffffffffffffffffffffff1673ffffffffffffffffffffffffffffffffffffffff16815260200183815260200182815260200194505050505060405180910390a15050565b6000808211801561164d57506000548211155b15156116c1576040517f08c379a00000000000000000000000000000000000000000000000000000000081526004018080602001828103825260128152602001807f496e76616c69642063686172697479204944000000000000000000000000000081525060200191505060405180910390fd5b60036000838152602001908152602001600020600601549050919050565b60015481565b600080821180156116f857506001548211155b151561176c576040517f08c379a00000000000000000000000000000000000000000000000000000000081526004018080602001828103825260178152602001807f496e76616c6964206f7267616e69736174696f6e20494400000000000000000081525060200191505060405180910390fd5b60046000838152602001908152602001600020600501549050919050565b6003602052806000526040600020600091509050806000018054600181600116156101000203166002900480601f0160208091040260200160405190810160405280929190818152602001828054600181600116156101000203166002900480156118365780601f1061180b57610100808354040283529160200191611836565b820191906000526020600020905b81548152906001019060200180831161181957829003601f168201915b505050505090806001018054600181600116156101000203166002900480601f0160208091040260200160405190810160405280929190818152602001828054600181600116156101000203166002900480156118d45780601f106118a9576101008083540402835291602001916118d4565b820191906000526020600020905b8154815290600101906020018083116118b757829003601f168201915b505050505090806002018054600181600116156101000203166002900480601f0160208091040260200160405190810160405280929190818152602001828054600181600116156101000203166002900480156119725780601f1061194757610100808354040283529160200191611972565b820191906000526020600020905b81548152906001019060200180831161195557829003601f168201915b505050505090806003018054600181600116156101000203166002900480601f016020809104026020016040519081016040528092919081815260200182805460018160011615610100020316600290048015611a105780601f106119e557610100808354040283529160200191611a10565b820191906000526020600020905b8154815290600101906020018083116119f357829003601f168201915b5050505050908060040154908060050160009054906101000a900473ffffffffffffffffffffffffffffffffffffffff16908060060154905087565b828054600181600116156101000203166002900490600052602060002090601f016020900481019282601f10611a8d57805160ff1916838001178555611abb565b82800160010185558215611abb579182015b82811115611aba578251825591602001919060010190611a9f565b5b509050611ac89190611acc565b5090565b611aee91905b80821115611aea576000816000905550600101611ad2565b5090565b9056fea165627a7a72305820932cd5626ff906d44907bcb6108be5bfa238c8bf73da4711470688f13e6dd86f0029",
  "source": "// SPDX-License-Identifier: MIT\r\npragma solidity ^0.5.0;\r\n\r\ncontract Charity {\r\n    uint public charityCount = 0;\r\n    uint public orgCount = 0;\r\n    uint public transactionCount = 0;\r\n\r\n    struct CharityStruct {\r\n        string name;\r\n        string description;\r\n        string bankAccount;\r\n        string bankName;\r\n        uint id;\r\n        address payable charityAddress;\r\n        uint balance;\r\n    }\r\n\r\n    struct OrganisationStruct {\r\n        string name;\r\n        string bankAccount;\r\n        string bankName;\r\n        uint id;\r\n        address payable orgAddress;\r\n        uint balance;\r\n    }\r\n\r\n    struct TransactionStruct {\r\n        address from;\r\n        address to;\r\n        uint amount;\r\n        uint timestamp;\r\n        uint id;\r\n    }\r\n\r\n    mapping(uint => CharityStruct) public charities;\r\n    mapping(uint => OrganisationStruct) public organisations;\r\n    mapping(uint => TransactionStruct) public transactions;\r\n\r\n    event CharityCreated(uint id, string name, address charityAddress, uint timestamp);\r\n    event OrganisationCreated(uint id, string name, address orgAddress, uint timestamp);\r\n    event DonationReceived(address from, address to, uint amount, uint timestamp);\r\n\r\n    function createCharity(string memory _name, string memory _description, string memory _bankAccount, string memory _bankName) public returns(uint) {\r\n        charityCount++;\r\n        charities[charityCount] = CharityStruct({\r\n            name: _name,\r\n            description: _description,\r\n            bankAccount: _bankAccount,\r\n            bankName: _bankName,\r\n            id: charityCount,\r\n            charityAddress: msg.sender,\r\n            balance: 0\r\n        });\r\n\r\n        emit CharityCreated(charityCount, _name, msg.sender, block.timestamp);\r\n        return charityCount;\r\n    }\r\n\r\n    function createOrganisation(string memory _name, string memory _bankAccount, string memory _bankName) public returns(uint) {\r\n        orgCount++;\r\n        organisations[orgCount] = OrganisationStruct({\r\n            name: _name,\r\n            bankAccount: _bankAccount,\r\n            bankName: _bankName,\r\n            id: orgCount,\r\n            orgAddress: msg.sender,\r\n            balance: 0\r\n        });\r\n\r\n        emit OrganisationCreated(orgCount, _name, msg.sender, block.timestamp);\r\n        return orgCount;\r\n    }\r\n\r\n    function donateToCharity(uint _charityId) public payable {\r\n        require(_charityId > 0 && _charityId <= charityCount, \"Invalid charity ID\");\r\n        require(msg.value > 0, \"Donation amount must be greater than 0\");\r\n\r\n        CharityStruct storage charity = charities[_charityId];\r\n        charity.balance += msg.value;\r\n        charity.charityAddress.transfer(msg.value);\r\n\r\n        transactionCount++;\r\n        transactions[transactionCount] = TransactionStruct({\r\n            from: msg.sender,\r\n            to: charity.charityAddress,\r\n            amount: msg.value,\r\n            timestamp: block.timestamp,\r\n            id: transactionCount\r\n        });\r\n\r\n        emit DonationReceived(msg.sender, charity.charityAddress, msg.value, block.timestamp);\r\n    }\r\n\r\n    function getCharityBalance(uint _charityId) public view returns(uint) {\r\n        require(_charityId > 0 && _charityId <= charityCount, \"Invalid charity ID\");\r\n        return charities[_charityId].balance;\r\n    }\r\n\r\n    function getOrganisationBalance(uint _orgId) public view returns(uint) {\r\n        require(_orgId > 0 && _orgId <= orgCount, \"Invalid organisation ID\");\r\n        return organisations[_orgId].balance;\r\n    }\r\n}",
  "sourcePath": "C:\\Users\\sejja\\Documents\\master_s3\\blockchain\\charity-dapp\\contracts\\Charity.sol",
  "compiler": {
    "name": "solc",
    "version": "0.5.0+commit.1d4f565a.Emscripten.clang"
  },
  "schemaVersion": "3.4.16",
  "updatedAt": "2024-12-02T22:25:32.400Z",
  "networkType": "ethereum",
  "devdoc": {
    "methods": {}
  },
  "userdoc": {
    "methods": {}
  }
}